:100000000C945A000C946F000C946F000C946F00C9
:100010000C946F000C946F000C946F000C946F00A4
:100020000C946F000C946F000C946F000C946F0094
:100030000C946F000C94D9000C946F000C946F001A
:100040000C946F000C946F000C946F000C946F0074
:100050000C946F000C946F000C946F000C946F0064
:100060000C946F000C946F000C946F000C946F0054
:100070000C946F000C946F000C946F000C946F0044
:100080000C946F000C946F000C946F000C946F0034
:100090000C946F000C946F000C946F000C946F0024
:1000A0000C946F000C946F000C946F000C946F0014
:1000B0000C946F0011241FBECFEFD8E0DEBFCDBF80
:1000C00011E0A0E0B1E0EEECF2E002C005900D928C
:1000D000A230B107D9F70E94A2000C9465010C94DC
:1000E0000000FC01408121E030E002C0220F331FFC
:1000F0006A95E2F7242B20830895FC01908121E08A
:1001000030E002C0220F331F6A95E2F720952923C1
:1001100020830895FC01408121E030E002C0220FDD
:10012000331F6A95E2F7242B20830895FC01408158
:1001300021E030E002C0220F331F6A95E2F7242746
:100140002083089565E084E290E00E94710065E0FC
:1001500085E290E00E947D0064E084E290E00E94ED
:10016000710064E085E290E00E948A0063E084E22E
:1001700090E00E94710063E085E290E00E948A00B6
:1001800062E084E290E00E94710062E085E290E02B
:100190000E948A00E1E8F0E080818B7F808380818B
:1001A00083608083EFE6F0E08081816080837894D3
:1001B000FFCF1F920F920FB60F9211242F933F93F0
:1001C0004F935F936F937F938F939F93AF93BF935F
:1001D000EF93FF93809100018F5F8093000165E0B2
:1001E00085E290E00E949600809100018130A1F4A8
:1001F00065E085E290E00E947D0064E085E290E0A9
:100200000E948A0063E085E290E00E948A0062E03A
:1002100085E290E00E948A00809100018230A1F482
:1002200065E085E290E00E948A0064E085E290E06B
:100230000E947D0063E085E290E00E948A0062E017
:1002400085E290E00E948A00809100018330A1F451
:1002500065E085E290E00E947D0064E085E290E048
:100260000E948A0063E085E290E00E948A0062E0DA
:1002700085E290E00E948A00809100018430A1F420
:1002800065E085E290E00E947D0064E085E290E018
:100290000E948A0063E085E290E00E948A0062E0AA
:1002A00085E290E00E948A00FF91EF91BF91AF91AB
:1002B0009F918F917F916F915F914F913F912F917E
:0E02C0000F900FBE0F901F901895F894FFCF6F
:0202CE00FF002F
:00000001FF
