S015000030342D696E74657272757074732E737265631E
S11300000C945A000C9464000C9464000C946400E6
S11300100C9464000C9464000C9464000C946400CC
S11300200C9464000C9464000C9464000C946400BC
S11300300C9464000C94A4000C9464000C9464006C
S11300400C9464000C9464000C9464000C9464009C
S11300500C9464000C9464000C9464000C9464008C
S11300600C9464000C9464000C9464000C9464007C
S11300700C9464000C9464000C9464000C9464006C
S11300800C9464000C9464000C9464000C9464005C
S11300900C9464000C9464000C9464000C9464004C
S11300A00C9464000C9464000C9464000C9464003C
S11300B00C94640011241FBECFEFD8E0DEBFCDBF87
S11300C00E948B000C94CB000C940000FC01408136
S11300D021E030E002C0220F331F6A95E2F7242B9F
S11300E020830895FC01908121E030E002C0220FBA
S11300F0331F6A95E2F72095292320830895FC0194
S1130100408121E030E002C0220F331F6A95E2F7FC
S113011024272083089565E084E290E00E9466002D
S113012065E085E290E00E947200E1E8F0E0808101
S11301308B7F8083808183608083EFE6F0E0808121
S1130140816080837894FFCF1F920F920FB60F9235
S113015011242F933F934F935F936F937F938F93C8
S11301609F93AF93BF93EF93FF9365E085E290E095
S11301700E947F00FF91EF91BF91AF919F918F916A
S11301807F916F915F914F913F912F910F900FBE8F
S10D01900F901F901895F894FFCF0C
S9030000FC
