:100000000C9434000C9451000C9451000C94510049
:100010000C9451000C9451000C9451000C9451001C
:100020000C9451000C9451000C9451000C9451000C
:100030000C9451000C946C000C9451000C945100E1
:100040000C9451000C9451000C9441010C946F01DC
:100050000C9451000C9451000C9451000C945100DC
:100060000C9451000C94510011241FBECFEFD8E026
:10007000DEBFCDBF11E0A0E0B1E0EAE1F4E002C0F4
:1000800005900D92A234B107D9F721E0A2E4B1E0C6
:1000900001C01D92A738B207E1F70E9453000C94EB
:1000A0000B020C9400000E94100187E690E00E9471
:1000B0009901E1E8F0E080818A7F8083808182601D
:1000C0008083EFE6F0E0808181608083789482E035
:1000D00091E00E94C701FFCF1F920F920FB60F92BF
:1000E00011241F932F933F934F935F936F937F93AD
:1000F0008F939F93AF93BF93EF93FF93CF93DF9330
:10010000CDB7DEB72C97DEBFCDBF80E390E39A83F7
:10011000898380E390E09C838B8388E0E9E3F1E0CE
:10012000DE01159601900D928A95E1F7809101010B
:100130008230C9F0833049F1813009F054C0809198
:10014000000191E0980F909300018750803720F4D0
:1001500082E0809301014AC087E08093000181E042
:100160008093010143C080910001880F0E941F010C
:10017000182F0E943D01111104C083E080930101FA
:1001800035C081E08093010131C0809100014AE0D7
:10019000BE016F5F7F4F90E00E94D6018091000109
:1001A00040E1BE016B5F7F4F90E00E94D60180E28C
:1001B00091E00E94C701CE0101960E94C70180E331
:1001C00091E00E94C701CE0105960E94C70184E319
:1001D00091E00E94C70186E391E00E94C70181E09F
:1001E0008093010103C081E0809301012C960FB63A
:1001F000F894DEBF0FBECDBFDF91CF91FF91EF919D
:10020000BF91AF919F918F917F916F915F914F912E
:100210003F912F911F910F900FBE0F901F90189537
:1002200087B18F7C87B988B1806388B9E9EBF0E04A
:1002300080818C7F808388E98093B800089594EA58
:100240009093BC00ECEBF0E090819923ECF7809365
:10025000BB0084E88093BC00ECEBF0E08081882355
:10026000ECF79091B900987F983129F081E09034B3
:1002700019F480E0089580E0089584E98093BC003B
:1002800008951F920F920FB60F9211242F938F9300
:100290009F93EF93FF938091C0002091C6008C71D3
:1002A000E0914401EF5FEF7190914301E91739F05C
:1002B000E0934401F0E0E95BFE4F208301C082E05F
:1002C00090914201892B80934201FF91EF919F9180
:1002D0008F912F910F900FBE0F901F9018951F9226
:1002E0000F920FB60F9211248F939F93EF93FF936A
:1002F0009091460180914501981769F0E091450180
:10030000EF5FEF71E0934501F0E0E959FE4F808126
:100310008093C60005C0E1ECF0E080818F7D808392
:10032000FF91EF919F918F910F900FBE0F901F90B3
:1003300018951092460110924501109244011092B6
:10034000430199231CF422E02093C00090789093FD
:10035000C5008093C40088E98093C10086E0809343
:10036000C2000895209146012F5F2F7190914501A1
:100370002917E1F3E22FF0E0E959FE4F8083209343
:100380004601E1ECF0E08081806280830895CF93A4
:10039000DF93EC018881882331F021960E94B2011D
:1003A00089918111FBCFDF91CF910895BB274A300E
:1003B00031F4992322F4BDE2909581959F4F0C94DE
:1003C000E201BB27FB015527AA27880F991FAA1F07
:1003D000A41710F0A41B83955051B9F7A05DAA3360
:1003E00008F0A95DA193009779F7B111B19311922B
:1003F000CB010C94FB01DC01FC01672F7191772389
:10040000E1F7329704C07C916D9370836291AE17CF
:0A041000BF07C8F30895F894FFCF6A
:10041A0007010D0A5363616E204932432D627573D9
:10042A0020666F7220646576696365733A0D0A0007
:10043A004164647265737320666F756E643A200056
:10044A005B3078005D000A0D0030303030303030DB
:02045A000000A0
:00000001FF
