:100000000C9434000C943E000C943E000C943E0082
:100010000C943E000C943E000C943E000C943E0068
:100020000C943E000C943E000C943E000C943E0058
:100030000C943E000C943E000C943E000C943E0048
:100040000C943E000C943E000C943E000C943E0038
:100050000C943E000C943E000C943E000C943E0028
:100060000C943E000C943E0011241FBECFEFD8E04C
:10007000DEBFCDBF0E9440000C9402010C94000032
:10008000259A2D982D982D9A2FEF8DE399E42150E4
:1000900080409040E1F700C000002D982FEF89E6E6
:1000A00098E1215080409040E1F700C000002D9A77
:1000B0002FEF89E698E1215080409040E1F700C0A1
:1000C00000002D982FEF89E698E121508040904064
:1000D000E1F700C000002D9A2FEF89E698E121504A
:1000E00080409040E1F700C000002D982FEF8DE395
:1000F00099E4215080409040E1F700C000002D9A23
:100100002FEF89E698E1215080409040E1F700C050
:1001100000002D982FEF8DE399E42150804090400E
:10012000E1F700C000002D9A2FEF89E698E12150F9
:1001300080409040E1F700C000002D982FEF89E645
:1001400098E1215080409040E1F700C000002D9AD6
:100150002FEF89E698E1215080409040E1F700C000
:1001600000002D982FEF89E698E1215080409040C3
:10017000E1F700C000002D9A2FEF8DE399E42150A4
:1001800080409040E1F700C000002D982FEF89E6F5
:1001900098E1215080409040E1F700C000002D9A86
:1001A0002FEF8DE399E4215080409040E1F700C0AB
:1001B00000002D982FEF89E698E121508040904073
:1001C000E1F700C000002D9A2FEF8DE399E4215054
:1001D00080409040E1F700C000002D982FEF89E6A5
:1001E00098E1215080409040E1F700C000002D9838
:1001F0002FEF8DE399E4215080409040E1F700C05B
:08020000000040CFF894FFCF8D
:00000001FF
