:100000000C9434000C943E000C943E000C943E0082
:100010000C943E000C943E000C943E000C943E0068
:100020000C943E000C943E000C943E000C943E0058
:100030000C943E000C943E000C943E000C943E0048
:100040000C943E000C943E000C943E000C943E0038
:100050000C943E000C943E000C943E000C943E0028
:100060000C943E000C943E0011241FBECFEFD8E04C
:10007000DEBFCDBF0E947E000C94B1000C94000046
:10008000FC01408121E030E002C0220F331F6A955D
:10009000E2F7242B20830895FC01908121E030E0D9
:1000A00002C0220F331F6A95E2F72095292320838F
:1000B0000895FC01408121E030E002C0220F331F8F
:1000C0006A95E2F7242B20830895811113C00895C7
:1000D000000021503109E1F74150510919F020EA9F
:1000E0003FE0F6CF6150710919F040EA5FE0F7CFC9
:1000F000815019F06CE370E0F8CF08958AB162E0A6
:1001000090E00E9440008AB163E090E00E944000CD
:10011000C5E08AB162E090E00E944C008AB163E0E1
:1001200090E00E944C0081E00E9465008AB162E08C
:1001300090E00E9459008AB163E090E00E9459006B
:1001400081E00E9465008AB162E090E00E9459005F
:100150008AB163E090E00E944C008C2F0E94650001
:06016000D8CFF894FFCF98
:00000001FF
