S00D00006C6576656C2E73726563FF
S11300000C9434000C943E000C943E000C943E007E
S11300100C943E000C943E000C943E000C943E0064
S11300200C943E000C943E000C943E000C943E0054
S11300300C943E000C943E000C943E000C943E0044
S11300400C943E000C943E000C943E000C943E0034
S11300500C943E000C943E000C943E000C943E0024
S11300600C943E000C943E0011241FBECFEFD8E048
S1130070DEBFCDBF0E9475000C948E000C9400006E
S1130080FC01408121E030E002C0220F331F6A9559
S1130090E2F7242B20830895FC01808121E030E0E5
S11300A002C0220F331F6A95E2F7209582238083D2
S11300B08181282321830895FC01908121E030E08F
S11300C002C0220F331F6A95E2F72095292320836B
S11300D00895FC01408121E030E002C0220F331F6B
S11300E06A95E2F7242B2083089567E08AE290E082
S11300F00E94400066E08AE290E00E944C0067E0C3
S11301008BE290E00E94690083E08A95F1F7000099
S113011067E08BE290E00E945C00F1CFF894FFCF9F
S9030000FC
