:100000000C9434000C9451000C9451000C94510049
:100010000C9451000C9451000C9451000C9451001C
:100020000C9451000C9451000C9451000C9451000C
:100030000C9451000C9499010C9451000C945100B3
:100040000C9451000C9451000C94F4010C94220275
:100050000C9451000C9451000C9451000C945100DC
:100060000C9451000C94510011241FBECFEFD8E026
:10007000DEBFCDBF11E0A0E0B1E0E0E3F8E002C0F8
:1000800005900D92AC31B107D9F721E0ACE1B1E0B8
:1000900001C01D92A336B207E1F70E9489000C94BB
:1000A00016040C940000FC01408121E030E002C005
:1000B000220F331F6A95E2F7242B20830895FC0159
:1000C000808121E030E002C0220F331F6A95E2F701
:1000D000922F9095892380838181282B21830895F5
:1000E000FC01908121E030E002C0220F331F6A95AD
:1000F000E2F72095292320830895FC01408121E027
:1001000030E002C0220F331F6A95E2F7242B2083D0
:100110000895CF93DF9300D01F92CDB7DEB780E371
:1001200090E39A8389831B8262E08AE290E00E94D6
:10013000530063E08AE290E00E94530065E084E2AD
:1001400090E00E94530060E08AE290E00E945F002D
:100150000E94B00187E690E00E944C02E1E8F0E0E6
:100160008081897F8083808181608083EFE6F0E0F9
:100170008081816080837894F12C88EB0E94BF019C
:10018000811119C00E94DC0189EB0E94BF010E940D
:10019000E601F82E80E091E00E947C024AE0BE0178
:1001A0006F5F7F4F8F2D90E00E94E103CE0101969B
:1001B0000E947C0204C08EE091E00E947C020E94BA
:1001C000F00180E58F1518F408EE13E002C008E88E
:1001D00013E165E085E290E00E947D0085E38A9569
:1001E000F1F765E085E290E00E94700010928500D2
:1001F0001092840080E48093810080E286BB81E0DD
:1002000086BBB59BFECF109285001092840081E0E2
:100210008093810090E296BB86BB10921D011092E4
:100220001C01B59BFECF8091860090918700809144
:100230001C0190911D0180ED97E005C0E0E9F1E01F
:100240003197F1F701970097C9F762E08BE290E0F0
:100250000E94700063E08BE290E00E94700080E1F9
:1002600097E205C0E0E9F1E03197F1F701970097D7
:10027000C9F762E08BE290E00E947D0063E08BE2D0
:1002800090E00E947D0080E197E205C0E0E9F1E0A6
:100290003197F1F701970097C9F762E08BE290E0A0
:1002A0000E947D0063E08BE290E00E947000B80144
:1002B000110F880B990B0E94BF022B013C0120E01B
:1002C00030E04AE755E40E944C034B015C0120E01A
:1002D00030E040E85FE30E948902882324F120E0B7
:1002E0003FEF4FE757E4C501B4010E9447031816DA
:1002F000ACF420E030E040E251E4C301B2010E94DE
:100300004C030E948E0206C080E991E00197F1F74C
:100310006150710961157105B9F72FCFC501B4019D
:100320000E948E0202C061E070E0CB010197F1F7FC
:1003300024CF1F920F920FB60F9211248F939F9389
:1003400080911C0190911D01019690931D01809355
:100350001C019F918F910F900FBE0F901F901895C9
:1003600087B18F7C87B988B1806388B9E9EBF0E009
:1003700080818C7F808388E98093B800089594EA17
:100380009093BC009091BC009923E4F78093BB004C
:1003900084E88093BC008091BC008823E4F78091BE
:1003A000B900887F883121F0803421F480E00895FD
:1003B00080E0089581E008958093BB0084E88093F5
:1003C000BC008091BC008823E4F7089584E8809302
:1003D000BC008091BC008823E4F78091BB000895A5
:1003E00084E98093BC0008951F920F920FB60F927C
:1003F00011242F938F939F93EF93FF938091C000CD
:100400002091C6008C71E0912001EF5FEF71909117
:100410001F01E91739F0E0932001F0E0ED5DFE4F98
:10042000208301C082E090911E01892B80931E01E0
:10043000FF91EF919F918F912F910F900FBE0F9091
:100440001F9018951F920F920FB60F9211248F9341
:100450009F93EF93FF939091220180912101981730
:1004600069F0E0912101EF5FEF71E0932101F0E08D
:10047000ED5BFE4F80818093C60005C0E1ECF0E0AB
:1004800080818F7D8083FF91EF919F918F910F905D
:100490000FBE0F901F90189510922201109221010B
:1004A0001092200110921F01282F392F33231CF4A2
:1004B00022E02093C00090789093C5008093C40000
:1004C00088E98093C10086E08093C200089520915E
:1004D00022012F5F2F71909121012917E1F3E22F63
:1004E000F0E0ED5BFE4F808320932201E1ECF0E031
:1004F0008081806280830895CF93DF93EC0103C0F5
:1005000021960E94670288818111FACFDF91CF91F5
:1005100008950E94FA0208F481E008950E942603DB
:1005200088F09F5798F0B92F9927B751B0F0E1F0B4
:10053000660F771F881F991F1AF0BA95C9F714C064
:10054000B13091F00E944003B1E008950C94400353
:10055000672F782F8827B85F39F0B93FCCF386959D
:1005600077956795B395D9F73EF4909580957095FA
:1005700061957F4F8F4F9F4F0895E89409C097FB77
:100580003EF490958095709561957F4F8F4F9F4F6A
:100590009923A9F0F92F96E9BB279395F6958795AE
:1005A00077956795B795F111F8CFFAF4BB0F11F471
:1005B00060FF1BC06F5F7F4F8F4F9F4F16C0882318
:1005C00011F096E911C0772321F09EE8872F762F4E
:1005D00005C0662371F096E8862F70E060E02AF08F
:1005E0009A95660F771F881FDAF7880F969587957B
:1005F00097F90895990F0008550FAA0BE0E8FEEF50
:1006000016161706E807F907C0F012161306E407D6
:10061000F50798F0621B730B840B950B39F40A26CF
:1006200061F0232B242B252B21F408950A2609F4AD
:10063000A140A6958FEF811D811D089557FD90580B
:10064000440F551F59F05F3F71F04795880F97FB96
:10065000991F61F09F3F79F0879508951216130650
:100660001406551FF2CF4695F1DF08C0161617067F
:100670001806991FF1CF86957105610508940895B4
:10068000E894BB2766277727CB0197F908950E9446
:10069000FA0208F48FEF08950E945F030C94D003D0
:1006A0000E94C20338F00E94C90320F0952311F084
:1006B0000C94B9030C94BF0311240C9441030E94C1
:1006C0001E0370F3959FC1F3950F50E0551F629F75
:1006D000F001729FBB27F00DB11D639FAA27F00D9B
:1006E000B11DAA1F649F6627B00DA11D661F829FC2
:1006F0002227B00DA11D621F739FB00DA11D621FA7
:10070000839FA00D611D221F749F3327A00D611DC3
:10071000231F849F600D211D822F762F6A2F1124A5
:100720009F5750409AF0F1F088234AF0EE0FFF1FD8
:10073000BB1F661F771F881F91505040A9F79E3F2F
:10074000510580F00C94B9030C9441035F3FE4F32E
:10075000983ED4F3869577956795B795F795E79585
:100760009F5FC1F7FE2B880F911D9695879597F98E
:10077000089597F99F6780E870E060E008959FEF23
:1007800080EC089500240A94161617061806090628
:10079000089500240A9412161306140605060895F7
:1007A000092E0394000C11F4882352F0BB0F40F47F
:1007B000BF2B11F460FF04C06F5F7F4F8F4F9F4FBF
:1007C0000895BB274A3031F4992322F4BDE2909575
:1007D00081959F4F0C94ED03BB27FB015527AA275A
:1007E000880F991FAA1FA41710F0A41B83955051BE
:1007F000B9F7A05DAA3308F0A95DA193009779F736
:10080000B111B1931192CB010C940604DC01FC01EF
:10081000672F71917723E1F7329704C07C916D9334
:1008200070836291AE17BF07C8F30895F894FFCFA5
:100830000D0A48756D69646974793A0D0A004E6F46
:0C0840002064657669636521200D0A00C4
:00000001FF
