S00C00004C6564732E7372656390
S11300000C9434000C943E000C943E000C943E007E
S11300100C943E000C943E000C943E000C943E0064
S11300200C943E000C943E000C943E000C943E0054
S11300300C943E000C943E000C943E000C943E0044
S11300400C943E000C943E000C943E000C943E0034
S11300500C943E000C943E000C943E000C943E0024
S11300600C943E000C943E0011241FBECFEFD8E048
S1130070DEBFCDBF0E9440000C9457000C940000DA
S1130080259A2D98389A409A409820E291E085B1BB
S1130090822785B988B1892788B93FEF49E688E185
S11300A0315040408040E1F700C00000F0CFF894A8
S10500B0FFCF7C
S9030000FC
