:100000000C9434000C943E000C943E000C943E0082
:100010000C943E000C943E000C943E000C943E0068
:100020000C943E000C943E000C943E000C943E0058
:100030000C943E000C943E000C943E000C943E0048
:100040000C943E000C943E000C943E000C943E0038
:100050000C943E000C943E000C943E000C943E0028
:100060000C943E000C943E0011241FBECFEFD8E04C
:10007000DEBFCDBF0E9440000C945B000C940000DA
:10008000529A539A5A985B982FE38DE093E021504F
:1000900080409040E1F700C000005A9A5B982FE33F
:1000A0008DE093E0215080409040E1F700C00000D7
:0A00B0005A9A5B9AE7CFF894FFCF4D
:00000001FF
